:10000000202000200901000005010000050100007A
:1000100000000000000000000000000000000000E0
:1000200000000000000000000000000005010000CA
:1000300000000000000000000501000005010000B4
:100040000501000005010000050100000501000098
:100050000501000005010000050100000501000088
:100060000501000005010000050100000501000078
:100070000501000005010000050100000501000068
:100080000501000005010000050100000501000058
:100090000501000005010000050100000501000048
:1000A0000501000010B5064C2378002B07D1054B45
:1000B000002B02D0044800E000BF0123237010BDD4
:1000C000000000200000000060030000084B10B595
:1000D000002B03D00749084800E000BF0748036829
:1000E000002B00D110BD064B002BFBD09847F9E741
:1000F0000000000004000020600300006003000016
:1001000000000000FEE7000010B51A4A1A4B9A42A0
:1001100011D01A00194B9A420DD2194A03339B1A77
:100120009B0801339B000022134812498C588450CD
:1001300004329A42FAD1134A134B9A420AD2D34359
:1001400011495B1803218B4304339B18002102C221
:100150009342FCD10D4AFF210D4B8B4393600D4A16
:1001600053687F390B4353600B4B98470B4B9847B1
:10017000FEE7C046600300000000002000000020F1
:1001800004000020000000202000002000ED00E01E
:100190000000000000400041F902000039020000A8
:1001A000074A00231360FA239B00584313689842C0
:1001B00005DD13680133136013688342F9DB704770
:1001C0001C000020164AC223DB00936015494B68CF
:1001D0001E2083434B60136A40218B4340310B4305
:1001E00011490B401362136A02210B4313620F4B38
:1001F00000221A725A729A72DA729A6906310A43A6
:100200009A6101220A4B1A7019000B781342FCD133
:10021000074B802252009A60064A5A607047C046D7
:100220000008004000400041FFFCFFFF00040040C8
:10023000000C004000060300F8B5294B98478022C7
:10024000D201284B1A60284B802212025A609A6110
:1002500006214F2299541C0080263602234F236A20
:100260003342FCD18025ED01E5612148B847E561C5
:100270002048B847E561FA208000B847E5611D488D
:10028000B847E561FA208000B847E5611948B847EA
:10029000E561FA208000B847E561FA208000B847A0
:1002A000E561FA208000B847E561FA208000B84790
:1002B000E5611048B847E5610E48B847E561FA20A6
:1002C0008000B847E5610B48B847E561FA20800037
:1002D000B847E561FA208000B847E561BFE7C0464E
:1002E000C50100000844004100440041A101000094
:1002F00088130000B80B000070B500260C4D0D4CA3
:10030000641BA410A64209D1002600F019F80A4D7A
:100310000A4C641BA410A64205D170BDB300EB5873
:1003200098470136EEE7B300EB5898470136F2E7FD
:100330004C0300004C0300004C030000500300007D
:10034000F8B5C046F8BC08BC9E467047CD0000001A
:10035000F8B5C046F8BC08BC9E467047A500000032
:0400000300000109EF
:00000001FF
